:080A9E007FBFDFEFF7FBFDFE57
:040AA60002530014E3
:100A3B00E4FDFCC3ED9FEC9E5015E4FBFA0BBB00F1
:0F0A4B00010AEB64794A70F50DBD00010C80E4DF
:010A5A002279
:100A1700C2B6C2B5E4FEEF5480C4131313540124C5
:100A2700FF92B4EF25E0FFD2B6C2B60EBE08E7D2FA
:030A3700B5C2B590
:010A3A002299
:100A5B007F407808E4F608DFFC75081C75091B75E8
:0B0A6B00480A754903755203755502D7
:010A7600225D
:10099000AF5220B208E55264016002E4FF20B306C2
:1009A000E55260027F0120B008E552640360027FD7
:1009B0000220B108E552640260027F03EF655260D5
:0509C000048F498F5275
:0109C500220F
:1008F000AF55EFD39400400F74072FF8E6FE74084D
:100900002FF8A6061F80EBE549146010146016143A
:10091000602724037036E50824388004E50824089D
:10092000543FF50822E50854077007E5082407FF3F
:100930008004E50814FF8F0822E5085407FFE50846
:0C094000BF070524F9FF800204FF8F08A8
:01094C002288
:1009F2007F01E5482411543FF548E4FEEEC39555C6
:100A0200500F74082EF8E6B54804E4FF80030E8008
:040A1200EBEF60DCCA
:010A160022BD
:1009C600755701E557C39555501074082557F8E635
:1009D600B50803020A77055780E9E508B5480CE52E
:0B09E60055C3943F500205551209F262
:0109F10022E3
:10088C007E08784AE4F608DEFCE4FEEEC39555508B
:10089C002C74082EF8E6FD131313541FF557ED5462
:1008AC0007FF744A2557F8C000E6FDA80774010835
:1008BC008002C333D8FC4DD000F60E80CEE5481331
:1008CC001313541FF557E5485407FF744A2557F87E
:1008DC00C000E6FEA8077401088002C333D8FC4EA2
:0308EC00D000F643
:0108EF0022E6
:0C0A92001209901208F01209C602088C2C
:030AAB00020A5BE1
:100A77007F08784AE4F608DFFC7FD07E07120A3B3E
:0B0A870020B203020A5B20B3F780FEE0
:10094D00120A5B120A92E4F556C3E5569554E495E6
:10095D00535026E4F9E4FF120A17E9900A9E93F525
:10096D0080744A29F8E6FF120A177F027E00120AE8
:10097D003B09B908E0055680D0E555B43FC5120ACC
:03098D007780C0B0
:03000000020800F3
:0C080000787FE4F6D8FD758157020847A8
:10080C0002094DE493A3F8E493A34003F68001F2AC
:10081C0008DFF48029E493A3F85407240CC8C333ED
:10082C00C4540F4420C8834004F456800146F6DFBC
:10083C00E4800B0102040810204080900AA6E47E9C
:10084C00019360BCA3FF543F30E509541FFEE493B1
:10085C00A360010ECF54C025E060A840B8E493A378
:10086C00FAE493A3F8E493A3C8C582C8CAC583CAA3
:10087C00F0A3C8C582C8CAC583CADFE9DEE780BE5B
:010AAA00004B
:00000001FF
